{
    "_format": "hh-sol-artifact-1",
    "contractName": "Rebase",
    "sourceName": "contracts/Rebase.sol",
    "abi": [
        {
            "inputs": [
                {
                    "internalType": "address",
                    "name": "_oracle",
                    "type": "address"
                },
                {
                    "internalType": "address",
                    "name": "_stableCoin",
                    "type": "address"
                }
            ],
            "stateMutability": "nonpayable",
            "type": "constructor"
        },
        {
            "inputs": [],
            "name": "EnforcedPause",
            "type": "error"
        },
        {
            "inputs": [],
            "name": "ExpectedPause",
            "type": "error"
        },
        {
            "inputs": [
                {
                    "internalType": "address",
                    "name": "owner",
                    "type": "address"
                }
            ],
            "name": "OwnableInvalidOwner",
            "type": "error"
        },
        {
            "inputs": [
                {
                    "internalType": "address",
                    "name": "account",
                    "type": "address"
                }
            ],
            "name": "OwnableUnauthorizedAccount",
            "type": "error"
        },
        {
            "anonymous": false,
            "inputs": [
                {
                    "indexed": true,
                    "internalType": "address",
                    "name": "previousOwner",
                    "type": "address"
                },
                {
                    "indexed": true,
                    "internalType": "address",
                    "name": "newOwner",
                    "type": "address"
                }
            ],
            "name": "OwnershipTransferred",
            "type": "event"
        },
        {
            "anonymous": false,
            "inputs": [
                {
                    "indexed": false,
                    "internalType": "address",
                    "name": "account",
                    "type": "address"
                }
            ],
            "name": "Paused",
            "type": "event"
        },
        {
            "anonymous": false,
            "inputs": [
                {
                    "indexed": false,
                    "internalType": "address",
                    "name": "account",
                    "type": "address"
                }
            ],
            "name": "Unpaused",
            "type": "event"
        },
        {
            "anonymous": false,
            "inputs": [
                {
                    "indexed": true,
                    "internalType": "uint256",
                    "name": "timestamp",
                    "type": "uint256"
                },
                {
                    "indexed": false,
                    "internalType": "uint256",
                    "name": "oldSupply",
                    "type": "uint256"
                },
                {
                    "indexed": false,
                    "internalType": "uint256",
                    "name": "newSupply",
                    "type": "uint256"
                }
            ],
            "name": "Updated",
            "type": "event"
        },
        {
            "inputs": [],
            "name": "deposit",
            "outputs": [],
            "stateMutability": "payable",
            "type": "function"
        },
        {
            "inputs": [
                {
                    "internalType": "address",
                    "name": "",
                    "type": "address"
                }
            ],
            "name": "ethBalance",
            "outputs": [
                {
                    "internalType": "uint256",
                    "name": "",
                    "type": "uint256"
                }
            ],
            "stateMutability": "view",
            "type": "function"
        },
        {
            "inputs": [
                {
                    "internalType": "uint256",
                    "name": "weisPerPenny",
                    "type": "uint256"
                }
            ],
            "name": "getParity",
            "outputs": [
                {
                    "internalType": "uint256",
                    "name": "",
                    "type": "uint256"
                }
            ],
            "stateMutability": "view",
            "type": "function"
        },
        {
            "inputs": [
                {
                    "internalType": "uint256",
                    "name": "weisPerPenny",
                    "type": "uint256"
                }
            ],
            "name": "initialize",
            "outputs": [],
            "stateMutability": "payable",
            "type": "function"
        },
        {
            "inputs": [],
            "name": "lastUpdate",
            "outputs": [
                {
                    "internalType": "uint256",
                    "name": "",
                    "type": "uint256"
                }
            ],
            "stateMutability": "view",
            "type": "function"
        },
        {
            "inputs": [],
            "name": "oracle",
            "outputs": [
                {
                    "internalType": "address",
                    "name": "",
                    "type": "address"
                }
            ],
            "stateMutability": "view",
            "type": "function"
        },
        {
            "inputs": [],
            "name": "owner",
            "outputs": [
                {
                    "internalType": "address",
                    "name": "",
                    "type": "address"
                }
            ],
            "stateMutability": "view",
            "type": "function"
        },
        {
            "inputs": [],
            "name": "pause",
            "outputs": [],
            "stateMutability": "nonpayable",
            "type": "function"
        },
        {
            "inputs": [],
            "name": "paused",
            "outputs": [
                {
                    "internalType": "bool",
                    "name": "",
                    "type": "bool"
                }
            ],
            "stateMutability": "view",
            "type": "function"
        },
        {
            "inputs": [],
            "name": "renounceOwnership",
            "outputs": [],
            "stateMutability": "nonpayable",
            "type": "function"
        },
        {
            "inputs": [
                {
                    "internalType": "address",
                    "name": "newOracle",
                    "type": "address"
                }
            ],
            "name": "setOracle",
            "outputs": [],
            "stateMutability": "nonpayable",
            "type": "function"
        },
        {
            "inputs": [
                {
                    "internalType": "uint256",
                    "name": "toleranceInSeconds",
                    "type": "uint256"
                }
            ],
            "name": "setTolerance",
            "outputs": [],
            "stateMutability": "nonpayable",
            "type": "function"
        },
        {
            "inputs": [],
            "name": "stableCoin",
            "outputs": [
                {
                    "internalType": "address",
                    "name": "",
                    "type": "address"
                }
            ],
            "stateMutability": "view",
            "type": "function"
        },
        {
            "inputs": [
                {
                    "internalType": "address",
                    "name": "newOwner",
                    "type": "address"
                }
            ],
            "name": "transferOwnership",
            "outputs": [],
            "stateMutability": "nonpayable",
            "type": "function"
        },
        {
            "inputs": [],
            "name": "unPause",
            "outputs": [],
            "stateMutability": "nonpayable",
            "type": "function"
        },
        {
            "inputs": [
                {
                    "internalType": "uint256",
                    "name": "weisPerPenny",
                    "type": "uint256"
                }
            ],
            "name": "update",
            "outputs": [],
            "stateMutability": "nonpayable",
            "type": "function"
        },
        {
            "inputs": [
                {
                    "internalType": "uint256",
                    "name": "amountEth",
                    "type": "uint256"
                }
            ],
            "name": "withdrawEth",
            "outputs": [],
            "stateMutability": "payable",
            "type": "function"
        },
        {
            "inputs": [
                {
                    "internalType": "uint256",
                    "name": "amountUsda",
                    "type": "uint256"
                }
            ],
            "name": "withdrawUsda",
            "outputs": [],
            "stateMutability": "payable",
            "type": "function"
        }
    ],
    "bytecode": "0x608060405261012c60045534801561001657600080fd5b5060405161231f38038061231f83398181016040528101906100389190610285565b33600073ffffffffffffffffffffffffffffffffffffffff168173ffffffffffffffffffffffffffffffffffffffff16036100ab5760006040517f1e4fbdf70000000000000000000000000000000000000000000000000000000081526004016100a291906102d4565b60405180910390fd5b6100ba8161015e60201b60201c565b5060008060146101000a81548160ff02191690831515021790555081600160006101000a81548173ffffffffffffffffffffffffffffffffffffffff021916908373ffffffffffffffffffffffffffffffffffffffff16021790555080600260006101000a81548173ffffffffffffffffffffffffffffffffffffffff021916908373ffffffffffffffffffffffffffffffffffffffff16021790555050506102ef565b60008060009054906101000a900473ffffffffffffffffffffffffffffffffffffffff169050816000806101000a81548173ffffffffffffffffffffffffffffffffffffffff021916908373ffffffffffffffffffffffffffffffffffffffff1602179055508173ffffffffffffffffffffffffffffffffffffffff168173ffffffffffffffffffffffffffffffffffffffff167f8be0079c531659141344cd1fd0a4f28419497f9722a3daafe3b4186f6b6457e060405160405180910390a35050565b600080fd5b600073ffffffffffffffffffffffffffffffffffffffff82169050919050565b600061025282610227565b9050919050565b61026281610247565b811461026d57600080fd5b50565b60008151905061027f81610259565b92915050565b6000806040838503121561029c5761029b610222565b5b60006102aa85828601610270565b92505060206102bb85828601610270565b9150509250929050565b6102ce81610247565b82525050565b60006020820190506102e960008301846102c5565b92915050565b612021806102fe6000396000f3fe6080604052600436106101095760003560e01c80638da5cb5b11610095578063d0e30db011610064578063d0e30db014610303578063d8f3790f1461030d578063f2fde38b1461034a578063f7b188a514610373578063fe4b84df1461038a57610109565b80638da5cb5b14610266578063992642e514610291578063c0463711146102bc578063c311d049146102e757610109565b8063715018a6116100dc578063715018a6146101bb5780637adbf973146101d25780637dc0d1d0146101fb57806382ab890a146102265780638456cb591461024f57610109565b80633402995a1461010e5780633c5fd9821461014b5780635c975abb146101745780636791f8b61461019f575b600080fd5b34801561011a57600080fd5b50610135600480360381019061013091906118c1565b6103a6565b60405161014291906118fd565b60405180910390f35b34801561015757600080fd5b50610172600480360381019061016d91906118c1565b610534565b005b34801561018057600080fd5b50610189610589565b6040516101969190611933565b60405180910390f35b6101b960048036038101906101b491906118c1565b61059f565b005b3480156101c757600080fd5b506101d06108ad565b005b3480156101de57600080fd5b506101f960048036038101906101f491906119ac565b6108c1565b005b34801561020757600080fd5b5061021061097c565b60405161021d91906119e8565b60405180910390f35b34801561023257600080fd5b5061024d600480360381019061024891906118c1565b6109a2565b005b34801561025b57600080fd5b50610264610b25565b005b34801561027257600080fd5b5061027b610b37565b60405161028891906119e8565b60405180910390f35b34801561029d57600080fd5b506102a6610b60565b6040516102b391906119e8565b60405180910390f35b3480156102c857600080fd5b506102d1610b86565b6040516102de91906118fd565b60405180910390f35b61030160048036038101906102fc91906118c1565b610b8c565b005b61030b610e38565b005b34801561031957600080fd5b50610334600480360381019061032f91906119ac565b611051565b60405161034191906118fd565b60405180910390f35b34801561035657600080fd5b50610371600480360381019061036c91906119ac565b611069565b005b34801561037f57600080fd5b506103886110ef565b005b6103a4600480360381019061039f91906118c1565b611101565b005b600080820361044357600160009054906101000a900473ffffffffffffffffffffffffffffffffffffffff1673ffffffffffffffffffffffffffffffffffffffff16630667b0386040518163ffffffff1660e01b8152600401602060405180830381865afa15801561041c573d6000803e3d6000fd5b505050506040513d601f19601f820116820180604052508101906104409190611a18565b91505b6000600260009054906101000a900473ffffffffffffffffffffffffffffffffffffffff1673ffffffffffffffffffffffffffffffffffffffff166318160ddd6040518163ffffffff1660e01b8152600401602060405180830381865afa1580156104b2573d6000803e3d6000fd5b505050506040513d601f19601f820116820180604052508101906104d69190611a18565b9050600047905060008114806104ec5750600082145b806104f75750600084145b156105075760649250505061052f565b80606485846105169190611a74565b6105209190611a74565b61052a9190611ae5565b925050505b919050565b61053c611277565b6000811161057f576040517f08c379a000000000000000000000000000000000000000000000000000000000815260040161057690611b73565b60405180910390fd5b8060048190555050565b60008060149054906101000a900460ff16905090565b6105a76112fe565b600454426105b59190611b93565b60035410156105f9576040517f08c379a00000000000000000000000000000000000000000000000000000000081526004016105f090611c39565b60405180910390fd5b80600260009054906101000a900473ffffffffffffffffffffffffffffffffffffffff1673ffffffffffffffffffffffffffffffffffffffff166370a08231336040518263ffffffff1660e01b815260040161065591906119e8565b602060405180830381865afa158015610672573d6000803e3d6000fd5b505050506040513d601f19601f820116820180604052508101906106969190611a18565b10156106d7576040517f08c379a00000000000000000000000000000000000000000000000000000000081526004016106ce90611ca5565b60405180910390fd5b600260009054906101000a900473ffffffffffffffffffffffffffffffffffffffff1673ffffffffffffffffffffffffffffffffffffffff16639dc29fac33836040518363ffffffff1660e01b8152600401610734929190611cc5565b600060405180830381600087803b15801561074e57600080fd5b505af1158015610762573d6000803e3d6000fd5b505050506000600160009054906101000a900473ffffffffffffffffffffffffffffffffffffffff1673ffffffffffffffffffffffffffffffffffffffff16630667b0386040518163ffffffff1660e01b8152600401602060405180830381865afa1580156107d5573d6000803e3d6000fd5b505050506040513d601f19601f820116820180604052508101906107f99190611a18565b9050600081836108099190611a74565b905080600560003373ffffffffffffffffffffffffffffffffffffffff1673ffffffffffffffffffffffffffffffffffffffff168152602001908152602001600020600082825461085a9190611b93565b925050819055503373ffffffffffffffffffffffffffffffffffffffff166108fc829081150290604051600060405180830381858888f193505050501580156108a7573d6000803e3d6000fd5b50505050565b6108b5611277565b6108bf600061133f565b565b6108c9611277565b600073ffffffffffffffffffffffffffffffffffffffff168173ffffffffffffffffffffffffffffffffffffffff1603610938576040517f08c379a000000000000000000000000000000000000000000000000000000000815260040161092f90611d3a565b60405180910390fd5b80600160006101000a81548173ffffffffffffffffffffffffffffffffffffffff021916908373ffffffffffffffffffffffffffffffffffffffff16021790555050565b600160009054906101000a900473ffffffffffffffffffffffffffffffffffffffff1681565b600160009054906101000a900473ffffffffffffffffffffffffffffffffffffffff1673ffffffffffffffffffffffffffffffffffffffff163373ffffffffffffffffffffffffffffffffffffffff1614610a32576040517f08c379a0000000000000000000000000000000000000000000000000000000008152600401610a2990611dcc565b60405180910390fd5b6000600260009054906101000a900473ffffffffffffffffffffffffffffffffffffffff1673ffffffffffffffffffffffffffffffffffffffff166318160ddd6040518163ffffffff1660e01b8152600401602060405180830381865afa158015610aa1573d6000803e3d6000fd5b505050506040513d601f19601f82011682018060405250810190610ac59190611a18565b90506000610ad283611403565b905060008114610b2057426003819055506003547f6642e1e496629680de50fd66c266da5b2787a13fe171acf2c954ed368c852bc28383604051610b17929190611dec565b60405180910390a25b505050565b610b2d611277565b610b35611779565b565b60008060009054906101000a900473ffffffffffffffffffffffffffffffffffffffff16905090565b600260009054906101000a900473ffffffffffffffffffffffffffffffffffffffff1681565b60035481565b610b946112fe565b60045442610ba29190611b93565b6003541015610be6576040517f08c379a0000000000000000000000000000000000000000000000000000000008152600401610bdd90611c39565b60405180910390fd5b34600560003373ffffffffffffffffffffffffffffffffffffffff1673ffffffffffffffffffffffffffffffffffffffff168152602001908152602001600020541015610c68576040517f08c379a0000000000000000000000000000000000000000000000000000000008152600401610c5f90611e61565b60405180910390fd5b34600560003373ffffffffffffffffffffffffffffffffffffffff1673ffffffffffffffffffffffffffffffffffffffff1681526020019081526020016000206000828254610cb79190611b93565b925050819055506000600160009054906101000a900473ffffffffffffffffffffffffffffffffffffffff1673ffffffffffffffffffffffffffffffffffffffff16630667b0386040518163ffffffff1660e01b8152600401602060405180830381865afa158015610d2d573d6000803e3d6000fd5b505050506040513d601f19601f82011682018060405250810190610d519190611a18565b9050600260009054906101000a900473ffffffffffffffffffffffffffffffffffffffff1673ffffffffffffffffffffffffffffffffffffffff16639dc29fac338385610d9e9190611ae5565b6040518363ffffffff1660e01b8152600401610dbb929190611cc5565b600060405180830381600087803b158015610dd557600080fd5b505af1158015610de9573d6000803e3d6000fd5b505050503373ffffffffffffffffffffffffffffffffffffffff166108fc839081150290604051600060405180830381858888f19350505050158015610e33573d6000803e3d6000fd5b505050565b610e406112fe565b60045442610e4e9190611b93565b6003541015610e92576040517f08c379a0000000000000000000000000000000000000000000000000000000008152600401610e8990611c39565b60405180910390fd5b6000600160009054906101000a900473ffffffffffffffffffffffffffffffffffffffff1673ffffffffffffffffffffffffffffffffffffffff16630667b0386040518163ffffffff1660e01b8152600401602060405180830381865afa158015610f01573d6000803e3d6000fd5b505050506040513d601f19601f82011682018060405250810190610f259190611a18565b905080341015610f6a576040517f08c379a0000000000000000000000000000000000000000000000000000000008152600401610f6190611ecd565b60405180910390fd5b34600560003373ffffffffffffffffffffffffffffffffffffffff1673ffffffffffffffffffffffffffffffffffffffff1681526020019081526020016000208190555060008134610fbc9190611ae5565b9050600260009054906101000a900473ffffffffffffffffffffffffffffffffffffffff1673ffffffffffffffffffffffffffffffffffffffff166340c10f1933836040518363ffffffff1660e01b815260040161101b929190611cc5565b600060405180830381600087803b15801561103557600080fd5b505af1158015611049573d6000803e3d6000fd5b505050505050565b60056020528060005260406000206000915090505481565b611071611277565b600073ffffffffffffffffffffffffffffffffffffffff168173ffffffffffffffffffffffffffffffffffffffff16036110e35760006040517f1e4fbdf70000000000000000000000000000000000000000000000000000000081526004016110da91906119e8565b60405180910390fd5b6110ec8161133f565b50565b6110f7611277565b6110ff6117dc565b565b611109611277565b6000811161114c576040517f08c379a000000000000000000000000000000000000000000000000000000000815260040161114390611f39565b60405180910390fd5b8034101561118f576040517f08c379a000000000000000000000000000000000000000000000000000000000815260040161118690611fcb565b60405180910390fd5b34600560003373ffffffffffffffffffffffffffffffffffffffff1673ffffffffffffffffffffffffffffffffffffffff16815260200190815260200160002081905550600260009054906101000a900473ffffffffffffffffffffffffffffffffffffffff1673ffffffffffffffffffffffffffffffffffffffff166340c10f1933833461121e9190611ae5565b6040518363ffffffff1660e01b815260040161123b929190611cc5565b600060405180830381600087803b15801561125557600080fd5b505af1158015611269573d6000803e3d6000fd5b505050504260038190555050565b61127f61183e565b73ffffffffffffffffffffffffffffffffffffffff1661129d610b37565b73ffffffffffffffffffffffffffffffffffffffff16146112fc576112c061183e565b6040517f118cdaa70000000000000000000000000000000000000000000000000000000081526004016112f391906119e8565b60405180910390fd5b565b611306610589565b1561133d576040517fd93c066500000000000000000000000000000000000000000000000000000000815260040160405180910390fd5b565b60008060009054906101000a900473ffffffffffffffffffffffffffffffffffffffff169050816000806101000a81548173ffffffffffffffffffffffffffffffffffffffff021916908373ffffffffffffffffffffffffffffffffffffffff1602179055508173ffffffffffffffffffffffffffffffffffffffff168173ffffffffffffffffffffffffffffffffffffffff167f8be0079c531659141344cd1fd0a4f28419497f9722a3daafe3b4186f6b6457e060405160405180910390a35050565b60008061140f836103a6565b90506000810361142b57611421611779565b6000915050611774565b6000600260009054906101000a900473ffffffffffffffffffffffffffffffffffffffff169050606482036114d2578073ffffffffffffffffffffffffffffffffffffffff166318160ddd6040518163ffffffff1660e01b8152600401602060405180830381865afa1580156114a5573d6000803e3d6000fd5b505050506040513d601f19601f820116820180604052508101906114c99190611a18565b92505050611774565b60648210156115eb57600060648360646114ec9190611b93565b8373ffffffffffffffffffffffffffffffffffffffff166318160ddd6040518163ffffffff1660e01b8152600401602060405180830381865afa158015611537573d6000803e3d6000fd5b505050506040513d601f19601f8201168201806040525081019061155b9190611a18565b6115659190611a74565b61156f9190611ae5565b90508173ffffffffffffffffffffffffffffffffffffffff166340c10f19611595610b37565b836040518363ffffffff1660e01b81526004016115b3929190611cc5565b600060405180830381600087803b1580156115cd57600080fd5b505af11580156115e1573d6000803e3d6000fd5b5050505050611700565b60648211156116ff576000606480846116049190611b93565b8373ffffffffffffffffffffffffffffffffffffffff166318160ddd6040518163ffffffff1660e01b8152600401602060405180830381865afa15801561164f573d6000803e3d6000fd5b505050506040513d601f19601f820116820180604052508101906116739190611a18565b61167d9190611a74565b6116879190611ae5565b90508173ffffffffffffffffffffffffffffffffffffffff16639dc29fac6116ad610b37565b836040518363ffffffff1660e01b81526004016116cb929190611cc5565b600060405180830381600087803b1580156116e557600080fd5b505af11580156116f9573d6000803e3d6000fd5b50505050505b5b8073ffffffffffffffffffffffffffffffffffffffff166318160ddd6040518163ffffffff1660e01b8152600401602060405180830381865afa15801561174b573d6000803e3d6000fd5b505050506040513d601f19601f8201168201806040525081019061176f9190611a18565b925050505b919050565b6117816112fe565b6001600060146101000a81548160ff0219169083151502179055507f62e78cea01bee320cd4e420270b5ea74000d11b0c9f74754ebdbfc544b05a2586117c561183e565b6040516117d291906119e8565b60405180910390a1565b6117e4611846565b60008060146101000a81548160ff0219169083151502179055507f5db9ee0a495bf2e6ff9c91a7834c1ba4fdd244a5e8aa4e537bd38aeae4b073aa61182761183e565b60405161183491906119e8565b60405180910390a1565b600033905090565b61184e610589565b611884576040517f8dfc202b00000000000000000000000000000000000000000000000000000000815260040160405180910390fd5b565b600080fd5b6000819050919050565b61189e8161188b565b81146118a957600080fd5b50565b6000813590506118bb81611895565b92915050565b6000602082840312156118d7576118d6611886565b5b60006118e5848285016118ac565b91505092915050565b6118f78161188b565b82525050565b600060208201905061191260008301846118ee565b92915050565b60008115159050919050565b61192d81611918565b82525050565b60006020820190506119486000830184611924565b92915050565b600073ffffffffffffffffffffffffffffffffffffffff82169050919050565b60006119798261194e565b9050919050565b6119898161196e565b811461199457600080fd5b50565b6000813590506119a681611980565b92915050565b6000602082840312156119c2576119c1611886565b5b60006119d084828501611997565b91505092915050565b6119e28161196e565b82525050565b60006020820190506119fd60008301846119d9565b92915050565b600081519050611a1281611895565b92915050565b600060208284031215611a2e57611a2d611886565b5b6000611a3c84828501611a03565b91505092915050565b7f4e487b7100000000000000000000000000000000000000000000000000000000600052601160045260246000fd5b6000611a7f8261188b565b9150611a8a8361188b565b9250828202611a988161188b565b91508282048414831517611aaf57611aae611a45565b5b5092915050565b7f4e487b7100000000000000000000000000000000000000000000000000000000600052601260045260246000fd5b6000611af08261188b565b9150611afb8361188b565b925082611b0b57611b0a611ab6565b5b828204905092915050565b600082825260208201905092915050565b7f546f6c6572616e63652074696d652063616e6e6f74206265207a65726f000000600082015250565b6000611b5d601d83611b16565b9150611b6882611b27565b602082019050919050565b60006020820190508181036000830152611b8c81611b50565b9050919050565b6000611b9e8261188b565b9150611ba98361188b565b9250828203905081811115611bc157611bc0611a45565b5b92915050565b7f52656261736520636f6e7472616374206973207061757365642e20547279206160008201527f6761696e206c61746572206f7220636f6e74616374207468652061646d696e00602082015250565b6000611c23603f83611b16565b9150611c2e82611bc7565b604082019050919050565b60006020820190508181036000830152611c5281611c16565b9050919050565b7f496e73756666696369656e7420555344412062616c616e636500000000000000600082015250565b6000611c8f601983611b16565b9150611c9a82611c59565b602082019050919050565b60006020820190508181036000830152611cbe81611c82565b9050919050565b6000604082019050611cda60008301856119d9565b611ce760208301846118ee565b9392505050565b7f4f7261636c6520616464726573732063616e6e6f74206265207a65726f000000600082015250565b6000611d24601d83611b16565b9150611d2f82611cee565b602082019050919050565b60006020820190508181036000830152611d5381611d17565b9050919050565b7f4f6e6c7920746865206f7261636c652063616e206d616b65207468697320636160008201527f6c6c000000000000000000000000000000000000000000000000000000000000602082015250565b6000611db6602283611b16565b9150611dc182611d5a565b604082019050919050565b60006020820190508181036000830152611de581611da9565b9050919050565b6000604082019050611e0160008301856118ee565b611e0e60208301846118ee565b9392505050565b7f496e73756666696369656e74204554482062616c616e63650000000000000000600082015250565b6000611e4b601883611b16565b9150611e5682611e15565b602082019050919050565b60006020820190508181036000830152611e7a81611e3e565b9050919050565b7f496e73756666696369656e74206465706f736974000000000000000000000000600082015250565b6000611eb7601483611b16565b9150611ec282611e81565b602082019050919050565b60006020820190508181036000830152611ee681611eaa565b9050919050565b7f5765697320526174696f2063616e6e6f74206265207a65726f00000000000000600082015250565b6000611f23601983611b16565b9150611f2e82611eed565b602082019050919050565b60006020820190508181036000830152611f5281611f16565b9050919050565b7f56616c75652063616e6e6f74206265206c657373207468616e2077656920726160008201527f74696f0000000000000000000000000000000000000000000000000000000000602082015250565b6000611fb5602383611b16565b9150611fc082611f59565b604082019050919050565b60006020820190508181036000830152611fe481611fa8565b905091905056fea2646970667358221220df2a62c6d2dbe0b27519d26446439b8b5ac8e0675799ebf37913ca5c627f4f7464736f6c634300081c0033",
    "linkReferences": {},
    "deployedLinkReferences": {}
}