{
  "_format": "hh-sol-artifact-1",
  "contractName": "WeiUsdOracle",
  "sourceName": "contracts/WeiUsdOracle.sol",
  "abi": [
    {
      "inputs": [
        {
          "internalType": "uint256",
          "name": "ethPriceInPenny",
          "type": "uint256"
        }
      ],
      "stateMutability": "nonpayable",
      "type": "constructor"
    },
    {
      "inputs": [
        {
          "internalType": "address",
          "name": "owner",
          "type": "address"
        }
      ],
      "name": "OwnableInvalidOwner",
      "type": "error"
    },
    {
      "inputs": [
        {
          "internalType": "address",
          "name": "account",
          "type": "address"
        }
      ],
      "name": "OwnableUnauthorizedAccount",
      "type": "error"
    },
    {
      "anonymous": false,
      "inputs": [
        {
          "indexed": false,
          "internalType": "address[]",
          "name": "subscribers",
          "type": "address[]"
        }
      ],
      "name": "AllUpdated",
      "type": "event"
    },
    {
      "anonymous": false,
      "inputs": [
        {
          "indexed": true,
          "internalType": "address",
          "name": "previousOwner",
          "type": "address"
        },
        {
          "indexed": true,
          "internalType": "address",
          "name": "newOwner",
          "type": "address"
        }
      ],
      "name": "OwnershipTransferred",
      "type": "event"
    },
    {
      "anonymous": false,
      "inputs": [
        {
          "indexed": true,
          "internalType": "address",
          "name": "subscriber",
          "type": "address"
        }
      ],
      "name": "Subscribed",
      "type": "event"
    },
    {
      "anonymous": false,
      "inputs": [
        {
          "indexed": true,
          "internalType": "address",
          "name": "subscriber",
          "type": "address"
        }
      ],
      "name": "Unsubscribed",
      "type": "event"
    },
    {
      "inputs": [],
      "name": "getWeiRate",
      "outputs": [
        {
          "internalType": "uint256",
          "name": "",
          "type": "uint256"
        }
      ],
      "stateMutability": "view",
      "type": "function"
    },
    {
      "inputs": [],
      "name": "lastUpdate",
      "outputs": [
        {
          "internalType": "uint256",
          "name": "",
          "type": "uint256"
        }
      ],
      "stateMutability": "view",
      "type": "function"
    },
    {
      "inputs": [],
      "name": "owner",
      "outputs": [
        {
          "internalType": "address",
          "name": "",
          "type": "address"
        }
      ],
      "stateMutability": "view",
      "type": "function"
    },
    {
      "inputs": [],
      "name": "renounceOwnership",
      "outputs": [],
      "stateMutability": "nonpayable",
      "type": "function"
    },
    {
      "inputs": [
        {
          "internalType": "uint256",
          "name": "ethPriceInPenny",
          "type": "uint256"
        }
      ],
      "name": "setEthPrice",
      "outputs": [],
      "stateMutability": "nonpayable",
      "type": "function"
    },
    {
      "inputs": [
        {
          "internalType": "address",
          "name": "subscriber",
          "type": "address"
        }
      ],
      "name": "subscribe",
      "outputs": [],
      "stateMutability": "nonpayable",
      "type": "function"
    },
    {
      "inputs": [
        {
          "internalType": "uint256",
          "name": "",
          "type": "uint256"
        }
      ],
      "name": "subscribers",
      "outputs": [
        {
          "internalType": "address",
          "name": "",
          "type": "address"
        }
      ],
      "stateMutability": "view",
      "type": "function"
    },
    {
      "inputs": [
        {
          "internalType": "address",
          "name": "newOwner",
          "type": "address"
        }
      ],
      "name": "transferOwnership",
      "outputs": [],
      "stateMutability": "nonpayable",
      "type": "function"
    },
    {
      "inputs": [
        {
          "internalType": "address",
          "name": "subscriber",
          "type": "address"
        }
      ],
      "name": "unsbscribe",
      "outputs": [],
      "stateMutability": "nonpayable",
      "type": "function"
    }
  ],
  "bytecode": "0x60806040526000600155600060025534801561001a57600080fd5b506040516111d43803806111d4833981810160405281019061003c91906101eb565b33600073ffffffffffffffffffffffffffffffffffffffff168173ffffffffffffffffffffffffffffffffffffffff16036100af5760006040517f1e4fbdf70000000000000000000000000000000000000000000000000000000081526004016100a69190610259565b60405180910390fd5b6100be816100ec60201b60201c565b50600081670de0b6b3a76400006100d591906102a3565b9050806001819055504260028190555050506102d4565b60008060009054906101000a900473ffffffffffffffffffffffffffffffffffffffff169050816000806101000a81548173ffffffffffffffffffffffffffffffffffffffff021916908373ffffffffffffffffffffffffffffffffffffffff1602179055508173ffffffffffffffffffffffffffffffffffffffff168173ffffffffffffffffffffffffffffffffffffffff167f8be0079c531659141344cd1fd0a4f28419497f9722a3daafe3b4186f6b6457e060405160405180910390a35050565b600080fd5b6000819050919050565b6101c8816101b5565b81146101d357600080fd5b50565b6000815190506101e5816101bf565b92915050565b600060208284031215610201576102006101b0565b5b600061020f848285016101d6565b91505092915050565b600073ffffffffffffffffffffffffffffffffffffffff82169050919050565b600061024382610218565b9050919050565b61025381610238565b82525050565b600060208201905061026e600083018461024a565b92915050565b7f4e487b7100000000000000000000000000000000000000000000000000000000600052601260045260246000fd5b60006102ae826101b5565b91506102b9836101b5565b9250826102c9576102c8610274565b5b828204905092915050565b610ef1806102e36000396000f3fe608060405234801561001057600080fd5b50600436106100925760003560e01c806359221a681161006657806359221a6814610109578063715018a6146101395780638da5cb5b14610143578063c046371114610161578063f2fde38b1461017f57610092565b80629f9262146100975780630667b038146100b35780632fd1f050146100d157806341a7726a146100ed575b600080fd5b6100b160048036038101906100ac9190610a85565b61019b565b005b6100bb6103ca565b6040516100c89190610ac1565b60405180910390f35b6100eb60048036038101906100e69190610b3a565b6103d4565b005b61010760048036038101906101029190610b3a565b610566565b005b610123600480360381019061011e9190610a85565b6107ef565b6040516101309190610b76565b60405180910390f35b61014161082e565b005b61014b610842565b6040516101589190610b76565b60405180910390f35b61016961086b565b6040516101769190610ac1565b60405180910390f35b61019960048036038101906101949190610b3a565b610871565b005b600081116101de576040517f08c379a00000000000000000000000000000000000000000000000000000000081526004016101d590610bee565b60405180910390fd5b600081670de0b6b3a76400006101f49190610c3d565b905060008111610239576040517f08c379a000000000000000000000000000000000000000000000000000000000815260040161023090610cba565b60405180910390fd5b806001819055504260028190555060005b60038054905081101561037e57600073ffffffffffffffffffffffffffffffffffffffff166003828154811061028357610282610cda565b5b9060005260206000200160009054906101000a900473ffffffffffffffffffffffffffffffffffffffff1673ffffffffffffffffffffffffffffffffffffffff161461037357600381815481106102dd576102dc610cda565b5b9060005260206000200160009054906101000a900473ffffffffffffffffffffffffffffffffffffffff1673ffffffffffffffffffffffffffffffffffffffff166382ab890a836040518263ffffffff1660e01b81526004016103409190610ac1565b600060405180830381600087803b15801561035a57600080fd5b505af115801561036e573d6000803e3d6000fd5b505050505b80600101905061024a565b50600060038054905011156103c6577f16021d6e2bead68861d6649a1d5d1b41bffb1d77e2ca4461a1804bf00cb75ef960036040516103bd9190610e2d565b60405180910390a15b5050565b6000600154905090565b6103dc6108f7565b600073ffffffffffffffffffffffffffffffffffffffff168173ffffffffffffffffffffffffffffffffffffffff160361044b576040517f08c379a000000000000000000000000000000000000000000000000000000000815260040161044290610e9b565b60405180910390fd5b60005b600380549050811015610561578173ffffffffffffffffffffffffffffffffffffffff166003828154811061048657610485610cda565b5b9060005260206000200160009054906101000a900473ffffffffffffffffffffffffffffffffffffffff1673ffffffffffffffffffffffffffffffffffffffff160361055657600381815481106104e0576104df610cda565b5b9060005260206000200160006101000a81549073ffffffffffffffffffffffffffffffffffffffff02191690558173ffffffffffffffffffffffffffffffffffffffff167fae563681ccc696fae58fe830f401bc9c043a43ddb9f7c2830b32c3c70d9966e760405160405180910390a250610563565b80600101905061044e565b505b50565b61056e6108f7565b600073ffffffffffffffffffffffffffffffffffffffff168173ffffffffffffffffffffffffffffffffffffffff16036105dd576040517f08c379a00000000000000000000000000000000000000000000000000000000081526004016105d490610e9b565b60405180910390fd5b8073ffffffffffffffffffffffffffffffffffffffff167fa88fac53823b534c72d6958345adbe6801e072750d83b490d52ebbac51473a6360405160405180910390a260005b60038054905081101561078757600073ffffffffffffffffffffffffffffffffffffffff166003828154811061065c5761065b610cda565b5b9060005260206000200160009054906101000a900473ffffffffffffffffffffffffffffffffffffffff1673ffffffffffffffffffffffffffffffffffffffff16036107055781600382815481106106b7576106b6610cda565b5b9060005260206000200160006101000a81548173ffffffffffffffffffffffffffffffffffffffff021916908373ffffffffffffffffffffffffffffffffffffffff160217905550506107ec565b8173ffffffffffffffffffffffffffffffffffffffff16600382815481106107305761072f610cda565b5b9060005260206000200160009054906101000a900473ffffffffffffffffffffffffffffffffffffffff1673ffffffffffffffffffffffffffffffffffffffff160361077c57506107ec565b806001019050610623565b506003819080600181540180825580915050600190039060005260206000200160009091909190916101000a81548173ffffffffffffffffffffffffffffffffffffffff021916908373ffffffffffffffffffffffffffffffffffffffff1602179055505b50565b600381815481106107ff57600080fd5b906000526020600020016000915054906101000a900473ffffffffffffffffffffffffffffffffffffffff1681565b6108366108f7565b610840600061097e565b565b60008060009054906101000a900473ffffffffffffffffffffffffffffffffffffffff16905090565b60025481565b6108796108f7565b600073ffffffffffffffffffffffffffffffffffffffff168173ffffffffffffffffffffffffffffffffffffffff16036108eb5760006040517f1e4fbdf70000000000000000000000000000000000000000000000000000000081526004016108e29190610b76565b60405180910390fd5b6108f48161097e565b50565b6108ff610a42565b73ffffffffffffffffffffffffffffffffffffffff1661091d610842565b73ffffffffffffffffffffffffffffffffffffffff161461097c57610940610a42565b6040517f118cdaa70000000000000000000000000000000000000000000000000000000081526004016109739190610b76565b60405180910390fd5b565b60008060009054906101000a900473ffffffffffffffffffffffffffffffffffffffff169050816000806101000a81548173ffffffffffffffffffffffffffffffffffffffff021916908373ffffffffffffffffffffffffffffffffffffffff1602179055508173ffffffffffffffffffffffffffffffffffffffff168173ffffffffffffffffffffffffffffffffffffffff167f8be0079c531659141344cd1fd0a4f28419497f9722a3daafe3b4186f6b6457e060405160405180910390a35050565b600033905090565b600080fd5b6000819050919050565b610a6281610a4f565b8114610a6d57600080fd5b50565b600081359050610a7f81610a59565b92915050565b600060208284031215610a9b57610a9a610a4a565b5b6000610aa984828501610a70565b91505092915050565b610abb81610a4f565b82525050565b6000602082019050610ad66000830184610ab2565b92915050565b600073ffffffffffffffffffffffffffffffffffffffff82169050919050565b6000610b0782610adc565b9050919050565b610b1781610afc565b8114610b2257600080fd5b50565b600081359050610b3481610b0e565b92915050565b600060208284031215610b5057610b4f610a4a565b5b6000610b5e84828501610b25565b91505092915050565b610b7081610afc565b82525050565b6000602082019050610b8b6000830184610b67565b92915050565b600082825260208201905092915050565b7f4554482070726963652063616e6e6f74206265207a65726f0000000000000000600082015250565b6000610bd8601883610b91565b9150610be382610ba2565b602082019050919050565b60006020820190508181036000830152610c0781610bcb565b9050919050565b7f4e487b7100000000000000000000000000000000000000000000000000000000600052601260045260246000fd5b6000610c4882610a4f565b9150610c5383610a4f565b925082610c6357610c62610c0e565b5b828204905092915050565b7f57656920526174696f2063616e6e6f74206265207a65726f0000000000000000600082015250565b6000610ca4601883610b91565b9150610caf82610c6e565b602082019050919050565b60006020820190508181036000830152610cd381610c97565b9050919050565b7f4e487b7100000000000000000000000000000000000000000000000000000000600052603260045260246000fd5b600081549050919050565b600082825260208201905092915050565b60008190508160005260206000209050919050565b610d4381610afc565b82525050565b6000610d558383610d3a565b60208301905092915050565b60008160001c9050919050565b600073ffffffffffffffffffffffffffffffffffffffff82169050919050565b6000610da1610d9c83610d61565b610d6e565b9050919050565b6000610db48254610d8e565b9050919050565b6000600182019050919050565b6000610dd382610d09565b610ddd8185610d14565b9350610de883610d25565b8060005b83811015610e2057610dfd82610da8565b610e078882610d49565b9750610e1283610dbb565b925050600181019050610dec565b5085935050505092915050565b60006020820190508181036000830152610e478184610dc8565b905092915050565b7f537562736372696265722063616e6e6f74206265207a65726f00000000000000600082015250565b6000610e85601983610b91565b9150610e9082610e4f565b602082019050919050565b60006020820190508181036000830152610eb481610e78565b905091905056fea2646970667358221220f60822b025656e93a8f86763d94a64e7298ca86c5509c9967f2f74843ee7b15064736f6c634300081c0033",
  "linkReferences": {},
  "deployedLinkReferences": {}
}